{
  "contractName": "Voting",
  "abi": [
    {
      "constant": true,
      "inputs": [
        {
          "name": "",
          "type": "uint256"
        }
      ],
      "name": "options",
      "outputs": [
        {
          "name": "id",
          "type": "uint256"
        }
      ],
      "payable": false,
      "stateMutability": "view",
      "type": "function"
    },
    {
      "constant": true,
      "inputs": [
        {
          "name": "",
          "type": "address"
        }
      ],
      "name": "voters",
      "outputs": [
        {
          "name": "voted",
          "type": "bool"
        },
        {
          "name": "voterAddr",
          "type": "address"
        }
      ],
      "payable": false,
      "stateMutability": "view",
      "type": "function"
    },
    {
      "constant": true,
      "inputs": [],
      "name": "admin",
      "outputs": [
        {
          "name": "",
          "type": "address"
        }
      ],
      "payable": false,
      "stateMutability": "view",
      "type": "function"
    },
    {
      "inputs": [],
      "payable": false,
      "stateMutability": "nonpayable",
      "type": "constructor"
    },
    {
      "constant": false,
      "inputs": [
        {
          "name": "_votedProposal",
          "type": "uint256"
        }
      ],
      "name": "vote",
      "outputs": [],
      "payable": false,
      "stateMutability": "nonpayable",
      "type": "function"
    },
    {
      "constant": true,
      "inputs": [],
      "name": "results",
      "outputs": [
        {
          "name": "",
          "type": "uint256"
        },
        {
          "name": "",
          "type": "uint256[2]"
        }
      ],
      "payable": false,
      "stateMutability": "view",
      "type": "function"
    }
  ],
  "bytecode": "0x60806040526000805534801561001457600080fd5b5033600260006101000a81548173ffffffffffffffffffffffffffffffffffffffff021916908373ffffffffffffffffffffffffffffffffffffffff16021790555060b44201600181905550606060405180604001604052806000815260200182815250600460006002811061008657fe5b600202016000820151816000015560208201518160010190805190602001906100b092919061010c565b509050506040518060400160405280600181526020018281525060046001600281106100d857fe5b6002020160008201518160000155602082015181600101908051906020019061010292919061010c565b50905050506101d9565b828054828255906000526020600020908101928215610185579160200282015b828111156101845782518260006101000a81548173ffffffffffffffffffffffffffffffffffffffff021916908373ffffffffffffffffffffffffffffffffffffffff1602179055509160200191906001019061012c565b5b5090506101929190610196565b5090565b6101d691905b808211156101d257600081816101000a81549073ffffffffffffffffffffffffffffffffffffffff02191690555060010161019c565b5090565b90565b61065f806101e86000396000f3fe608060405234801561001057600080fd5b50600436106100575760003560e01c80630121b93f1461005c578063409e22051461008a578063a3ec138d146100cc578063a48bdb7c1461015b578063f851a440146101a8575b600080fd5b6100886004803603602081101561007257600080fd5b81019080803590602001909291905050506101f2565b005b6100b6600480360360208110156100a057600080fd5b81019080803590602001909291905050506104e0565b6040518082815260200191505060405180910390f35b61010e600480360360208110156100e257600080fd5b81019080803573ffffffffffffffffffffffffffffffffffffffff169060200190929190505050610501565b60405180831515151581526020018273ffffffffffffffffffffffffffffffffffffffff1673ffffffffffffffffffffffffffffffffffffffff1681526020019250505060405180910390f35b610163610552565b6040518083815260200182600260200280838360005b83811015610194578082015181840152602081019050610179565b505050509050019250505060405180910390f35b6101b06105bb565b604051808273ffffffffffffffffffffffffffffffffffffffff1673ffffffffffffffffffffffffffffffffffffffff16815260200191505060405180910390f35b60015442111561026a576040517f08c379a00000000000000000000000000000000000000000000000000000000081526004018080602001828103825260208152602001807f456c20706572696f646f20646520766f74616369c3b36e2066696e616c697a6f81525060200191505060405180910390fd5b600360003373ffffffffffffffffffffffffffffffffffffffff1673ffffffffffffffffffffffffffffffffffffffff16815260200190815260200160002060000160009054906101000a900460ff1615610310576040517f08c379a00000000000000000000000000000000000000000000000000000000081526004018080602001828103825260308152602001806106046030913960400191505060405180910390fd5b6001600360003373ffffffffffffffffffffffffffffffffffffffff1673ffffffffffffffffffffffffffffffffffffffff16815260200190815260200160002060000160006101000a81548160ff02191690831515021790555033600360003373ffffffffffffffffffffffffffffffffffffffff1673ffffffffffffffffffffffffffffffffffffffff16815260200190815260200160002060000160016101000a81548173ffffffffffffffffffffffffffffffffffffffff021916908373ffffffffffffffffffffffffffffffffffffffff1602179055506000600482600281106103fb57fe5b60020201905080600101600360003373ffffffffffffffffffffffffffffffffffffffff1673ffffffffffffffffffffffffffffffffffffffff16815260200190815260200160002060000160019054906101000a900473ffffffffffffffffffffffffffffffffffffffff1690806001815401808255809150509060018203906000526020600020016000909192909190916101000a81548173ffffffffffffffffffffffffffffffffffffffff021916908373ffffffffffffffffffffffffffffffffffffffff1602179055505060008081548092919060010191905055505050565b600481600281106104ed57fe5b600202016000915090508060000154905081565b60036020528060005260406000206000915090508060000160009054906101000a900460ff16908060000160019054906101000a900473ffffffffffffffffffffffffffffffffffffffff16905082565b600061055c6105e1565b6105646105e1565b60008090505b60028110156105ad576004816002811061058057fe5b600202016001018054905082826002811061059757fe5b602002018181525050808060010191505061056a565b506000548192509250509091565b600260009054906101000a900473ffffffffffffffffffffffffffffffffffffffff1681565b604051806040016040528060029060208202803883398082019150509050509056fe536f6c6f207365207065726d69746520656d6974697220756e20766f746f20706f7220706572736f6e612e2e2e212121a165627a7a72305820b52b664ec1543419f53f707617eea7166bfb4e59af47e707804d63acb87912770029",
  "source": "pragma solidity >=0.4.17 <0.7.0;\n\n\ncontract Voting {\n    struct Voter {\n        bool voted;\n        address voterAddr;\n    }\n\n    struct Proposal {\n        uint256 id;\n        address[] proposalVotes;\n    }\n\n    uint256 totalVotes = 0;\n    uint256 votingEndDate;\n    address public admin;\n\n    mapping(address => Voter) public voters;\n    Proposal[2] public options;\n\n    constructor() public {\n        admin = msg.sender;\n        // Tiempo que durará la votación.\n        votingEndDate = now + 3 minutes;\n\n        address[] memory emptyArray;\n\n        options[0] = Proposal({id: 0, proposalVotes: emptyArray});\n        options[1] = Proposal({id: 1, proposalVotes: emptyArray});\n    }\n\n    function vote(uint256 _votedProposal) public votedBeforeEndDate() {\n\n        if (voters[msg.sender].voted) {\n            revert(\"Solo se permite emitir un voto por persona...!!!\");\n        }\n\n        voters[msg.sender].voted = true;\n        voters[msg.sender].voterAddr = msg.sender;\n\n        Proposal storage proposalId = options[_votedProposal];\n        proposalId.proposalVotes.push(voters[msg.sender].voterAddr);\n\n        totalVotes++;\n    }\n\n    function results() public view returns (uint256, uint256[2] memory) {\n        uint256[2] memory countedVotes;\n        for (uint256 item = 0; item < options.length; item++) {\n            countedVotes[item] = options[item].proposalVotes.length;\n        }\n        return (totalVotes, countedVotes);\n    }\n\n    modifier votedBeforeEndDate() {\n        require(now <= votingEndDate, \"El periodo de votación finalizo\");\n        _;\n    }\n}\n",
  "sourcePath": "/Users/federico/Desktop/bbvaHack/VotingDapp/contracts/Voting.sol",
  "compiler": {
    "name": "solc",
    "version": "0.5.8+commit.23d335f2.Emscripten.clang"
  },
  "schemaVersion": "3.0.23",
  "updatedAt": "2020-05-27T13:03:21.324Z",
  "networkType": "ethereum",
  "devdoc": {
    "methods": {}
  },
  "userdoc": {
    "methods": {}
  }
}