{
  "contractName": "Voting",
  "abi": [
    {
      "constant": true,
      "inputs": [
        {
          "name": "",
          "type": "uint256"
        }
      ],
      "name": "options",
      "outputs": [
        {
          "name": "id",
          "type": "uint256"
        }
      ],
      "payable": false,
      "stateMutability": "view",
      "type": "function"
    },
    {
      "constant": true,
      "inputs": [
        {
          "name": "",
          "type": "address"
        }
      ],
      "name": "voters",
      "outputs": [
        {
          "name": "voted",
          "type": "bool"
        },
        {
          "name": "voterAddr",
          "type": "address"
        }
      ],
      "payable": false,
      "stateMutability": "view",
      "type": "function"
    },
    {
      "constant": true,
      "inputs": [],
      "name": "admin",
      "outputs": [
        {
          "name": "",
          "type": "address"
        }
      ],
      "payable": false,
      "stateMutability": "view",
      "type": "function"
    },
    {
      "inputs": [],
      "payable": false,
      "stateMutability": "nonpayable",
      "type": "constructor"
    },
    {
      "constant": false,
      "inputs": [
        {
          "name": "_votedProposal",
          "type": "uint256"
        }
      ],
      "name": "vote",
      "outputs": [],
      "payable": false,
      "stateMutability": "nonpayable",
      "type": "function"
    },
    {
      "constant": true,
      "inputs": [],
      "name": "results",
      "outputs": [
        {
          "name": "",
          "type": "uint256"
        },
        {
          "name": "",
          "type": "uint256[]"
        }
      ],
      "payable": false,
      "stateMutability": "view",
      "type": "function"
    }
  ],
  "bytecode": "0x60806040526000805534801561001457600080fd5b5033600360006101000a81548173ffffffffffffffffffffffffffffffffffffffff021916908373ffffffffffffffffffffffffffffffffffffffff160217905550606060405180604001604052806000815260200182815250600560006002811061007c57fe5b600202016000820151816000015560208201518160010190805190602001906100a6929190610102565b509050506040518060400160405280600181526020018281525060056001600281106100ce57fe5b600202016000820151816000015560208201518160010190805190602001906100f8929190610102565b50905050506101cf565b82805482825590600052602060002090810192821561017b579160200282015b8281111561017a5782518260006101000a81548173ffffffffffffffffffffffffffffffffffffffff021916908373ffffffffffffffffffffffffffffffffffffffff16021790555091602001919060010190610122565b5b509050610188919061018c565b5090565b6101cc91905b808211156101c857600081816101000a81549073ffffffffffffffffffffffffffffffffffffffff021916905550600101610192565b5090565b90565b6105d4806101de6000396000f3fe608060405234801561001057600080fd5b50600436106100575760003560e01c80630121b93f1461005c578063409e22051461008a578063a3ec138d146100cc578063a48bdb7c1461015b578063f851a440146101c1575b600080fd5b6100886004803603602081101561007257600080fd5b810190808035906020019092919050505061020b565b005b6100b6600480360360208110156100a057600080fd5b8101908080359060200190929190505050610481565b6040518082815260200191505060405180910390f35b61010e600480360360208110156100e257600080fd5b81019080803573ffffffffffffffffffffffffffffffffffffffff1690602001909291905050506104a2565b60405180831515151581526020018273ffffffffffffffffffffffffffffffffffffffff1673ffffffffffffffffffffffffffffffffffffffff1681526020019250505060405180910390f35b6101636104f3565b6040518083815260200180602001828103825283818151815260200191508051906020019060200280838360005b838110156101ac578082015181840152602081019050610191565b50505050905001935050505060405180910390f35b6101c9610552565b604051808273ffffffffffffffffffffffffffffffffffffffff1673ffffffffffffffffffffffffffffffffffffffff16815260200191505060405180910390f35b600460003373ffffffffffffffffffffffffffffffffffffffff1673ffffffffffffffffffffffffffffffffffffffff16815260200190815260200160002060000160009054906101000a900460ff16156102b1576040517f08c379a00000000000000000000000000000000000000000000000000000000081526004018080602001828103825260308152602001806105796030913960400191505060405180910390fd5b6001600460003373ffffffffffffffffffffffffffffffffffffffff1673ffffffffffffffffffffffffffffffffffffffff16815260200190815260200160002060000160006101000a81548160ff02191690831515021790555033600460003373ffffffffffffffffffffffffffffffffffffffff1673ffffffffffffffffffffffffffffffffffffffff16815260200190815260200160002060000160016101000a81548173ffffffffffffffffffffffffffffffffffffffff021916908373ffffffffffffffffffffffffffffffffffffffff16021790555060006005826002811061039c57fe5b60020201905080600101600460003373ffffffffffffffffffffffffffffffffffffffff1673ffffffffffffffffffffffffffffffffffffffff16815260200190815260200160002060000160019054906101000a900473ffffffffffffffffffffffffffffffffffffffff1690806001815401808255809150509060018203906000526020600020016000909192909190916101000a81548173ffffffffffffffffffffffffffffffffffffffff021916908373ffffffffffffffffffffffffffffffffffffffff1602179055505060008081548092919060010191905055505050565b6005816002811061048e57fe5b600202016000915090508060000154905081565b60046020528060005260406000206000915090508060000160009054906101000a900460ff16908060000160019054906101000a900473ffffffffffffffffffffffffffffffffffffffff16905082565b600060608060008090505b6002811015610544576005816002811061051457fe5b600202016001018054905082828151811061052b57fe5b60200260200101818152505080806001019150506104fe565b506000548192509250509091565b600360009054906101000a900473ffffffffffffffffffffffffffffffffffffffff168156fe536f6c6f207365207065726d69746520656d6974697220756e20766f746f20706f7220706572736f6e612e2e2e212121a165627a7a7230582040285217d3f4a02f47a61404f51c51ee290180ef434c81c09457d4117b5e45390029",
  "source": "pragma solidity >=0.4.17 <0.7.0;\n\n\ncontract Voting {\n    struct Voter {\n        bool voted;\n        address voterAddr;\n    }\n\n    struct Proposal {\n        uint256 id;\n        address[] proposalVotes;\n    }\n\n    uint256 totalVotes = 0;\n    bool ended;\n    uint256 votingEndDate;\n    address public admin;\n\n    mapping(address => Voter) public voters;\n    Proposal[2] public options;\n\n    constructor() public {\n        admin = msg.sender;\n\n        address[] memory emptyArray;\n\n        options[0] = Proposal({id: 0, proposalVotes: emptyArray});\n        options[1] = Proposal({id: 1, proposalVotes: emptyArray});\n    }\n\n    function vote(uint256 _votedProposal) public {\n        if (voters[msg.sender].voted) {\n            revert(\"Solo se permite emitir un voto por persona...!!!\");\n        }\n\n        voters[msg.sender].voted = true;\n        voters[msg.sender].voterAddr = msg.sender;\n\n        Proposal storage proposalId = options[_votedProposal];\n        proposalId.proposalVotes.push(voters[msg.sender].voterAddr);\n\n        totalVotes++;\n    }\n\n    function results() public view returns (uint256, uint256[] memory) {\n        uint256[] memory countedVotes;\n        for (uint256 item = 0; item < options.length; item++) {\n            countedVotes[item] = options[item].proposalVotes.length;\n        }\n        return (totalVotes, countedVotes);\n    }\n}\n",
  "sourcePath": "/Users/federico/Desktop/bbvaHack/VotingDapp/contracts/Voting.sol",
  "compiler": {
    "name": "solc",
    "version": "0.5.8+commit.23d335f2.Emscripten.clang"
  },
  "schemaVersion": "3.0.23",
  "updatedAt": "2020-05-25T12:54:44.433Z",
  "networkType": "ethereum",
  "devdoc": {
    "methods": {}
  },
  "userdoc": {
    "methods": {}
  }
}