{
  "contractName": "Voting",
  "abi": [
    {
      "inputs": [],
      "payable": false,
      "stateMutability": "nonpayable",
      "type": "constructor"
    },
    {
      "constant": true,
      "inputs": [],
      "name": "admin",
      "outputs": [
        {
          "internalType": "address",
          "name": "",
          "type": "address"
        }
      ],
      "payable": false,
      "stateMutability": "view",
      "type": "function"
    },
    {
      "constant": true,
      "inputs": [
        {
          "internalType": "uint256",
          "name": "",
          "type": "uint256"
        }
      ],
      "name": "options",
      "outputs": [
        {
          "internalType": "uint256",
          "name": "id",
          "type": "uint256"
        }
      ],
      "payable": false,
      "stateMutability": "view",
      "type": "function"
    },
    {
      "constant": true,
      "inputs": [
        {
          "internalType": "address",
          "name": "",
          "type": "address"
        }
      ],
      "name": "voters",
      "outputs": [
        {
          "internalType": "bool",
          "name": "voted",
          "type": "bool"
        },
        {
          "internalType": "address",
          "name": "voterAddr",
          "type": "address"
        }
      ],
      "payable": false,
      "stateMutability": "view",
      "type": "function"
    },
    {
      "constant": true,
      "inputs": [],
      "name": "getOptions",
      "outputs": [
        {
          "internalType": "uint256",
          "name": "",
          "type": "uint256"
        }
      ],
      "payable": false,
      "stateMutability": "view",
      "type": "function"
    },
    {
      "constant": false,
      "inputs": [
        {
          "internalType": "uint256",
          "name": "_votedProposal",
          "type": "uint256"
        }
      ],
      "name": "vote",
      "outputs": [],
      "payable": false,
      "stateMutability": "nonpayable",
      "type": "function"
    },
    {
      "constant": true,
      "inputs": [],
      "name": "results",
      "outputs": [
        {
          "internalType": "uint256",
          "name": "",
          "type": "uint256"
        },
        {
          "internalType": "uint256[2]",
          "name": "",
          "type": "uint256[2]"
        }
      ],
      "payable": false,
      "stateMutability": "view",
      "type": "function"
    },
    {
      "constant": true,
      "inputs": [],
      "name": "getVoterDetails",
      "outputs": [
        {
          "internalType": "bool",
          "name": "",
          "type": "bool"
        },
        {
          "internalType": "address",
          "name": "",
          "type": "address"
        }
      ],
      "payable": false,
      "stateMutability": "view",
      "type": "function"
    }
  ],
  "bytecode": "0x60806040526000805534801561001457600080fd5b5033600260006101000a81548173ffffffffffffffffffffffffffffffffffffffff021916908373ffffffffffffffffffffffffffffffffffffffff16021790555060b44201600181905550606060405180604001604052806000815260200182815250600460006002811061008657fe5b600202016000820151816000015560208201518160010190805190602001906100b092919061010c565b509050506040518060400160405280600181526020018281525060046001600281106100d857fe5b6002020160008201518160000155602082015181600101908051906020019061010292919061010c565b50905050506101d9565b828054828255906000526020600020908101928215610185579160200282015b828111156101845782518260006101000a81548173ffffffffffffffffffffffffffffffffffffffff021916908373ffffffffffffffffffffffffffffffffffffffff1602179055509160200191906001019061012c565b5b5090506101929190610196565b5090565b6101d691905b808211156101d257600081816101000a81549073ffffffffffffffffffffffffffffffffffffffff02191690555060010161019c565b5090565b90565b6107c8806101e86000396000f3fe608060405234801561001057600080fd5b506004361061007d5760003560e01c8063a3ec138d1161005b578063a3ec138d14610147578063a48bdb7c146101d6578063cc2ee19614610223578063f851a440146102415761007d565b80630121b93f14610082578063409e2205146100b05780637d24c210146100f2575b600080fd5b6100ae6004803603602081101561009857600080fd5b810190808035906020019092919050505061028b565b005b6100dc600480360360208110156100c657600080fd5b8101908080359060200190929190505050610579565b6040518082815260200191505060405180910390f35b6100fa61059a565b60405180831515151581526020018273ffffffffffffffffffffffffffffffffffffffff1673ffffffffffffffffffffffffffffffffffffffff1681526020019250505060405180910390f35b6101896004803603602081101561015d57600080fd5b81019080803573ffffffffffffffffffffffffffffffffffffffff169060200190929190505050610658565b60405180831515151581526020018273ffffffffffffffffffffffffffffffffffffffff1673ffffffffffffffffffffffffffffffffffffffff1681526020019250505060405180910390f35b6101de6106a9565b6040518083815260200182600260200280838360005b8381101561020f5780820151818401526020810190506101f4565b505050509050019250505060405180910390f35b61022b610712565b6040518082815260200191505060405180910390f35b61024961071b565b604051808273ffffffffffffffffffffffffffffffffffffffff1673ffffffffffffffffffffffffffffffffffffffff16815260200191505060405180910390f35b600154421115610303576040517f08c379a00000000000000000000000000000000000000000000000000000000081526004018080602001828103825260208152602001807f456c20706572696f646f20646520766f74616369c3b36e2066696e616c697a6f81525060200191505060405180910390fd5b600360003373ffffffffffffffffffffffffffffffffffffffff1673ffffffffffffffffffffffffffffffffffffffff16815260200190815260200160002060000160009054906101000a900460ff16156103a9576040517f08c379a00000000000000000000000000000000000000000000000000000000081526004018080602001828103825260308152602001806107646030913960400191505060405180910390fd5b6001600360003373ffffffffffffffffffffffffffffffffffffffff1673ffffffffffffffffffffffffffffffffffffffff16815260200190815260200160002060000160006101000a81548160ff02191690831515021790555033600360003373ffffffffffffffffffffffffffffffffffffffff1673ffffffffffffffffffffffffffffffffffffffff16815260200190815260200160002060000160016101000a81548173ffffffffffffffffffffffffffffffffffffffff021916908373ffffffffffffffffffffffffffffffffffffffff16021790555060006004826002811061049457fe5b60020201905080600101600360003373ffffffffffffffffffffffffffffffffffffffff1673ffffffffffffffffffffffffffffffffffffffff16815260200190815260200160002060000160019054906101000a900473ffffffffffffffffffffffffffffffffffffffff1690806001815401808255809150509060018203906000526020600020016000909192909190916101000a81548173ffffffffffffffffffffffffffffffffffffffff021916908373ffffffffffffffffffffffffffffffffffffffff1602179055505060008081548092919060010191905055505050565b6004816002811061058657fe5b600202016000915090508060000154905081565b600080600360003373ffffffffffffffffffffffffffffffffffffffff1673ffffffffffffffffffffffffffffffffffffffff16815260200190815260200160002060000160009054906101000a900460ff16600360003373ffffffffffffffffffffffffffffffffffffffff1673ffffffffffffffffffffffffffffffffffffffff16815260200190815260200160002060000160019054906101000a900473ffffffffffffffffffffffffffffffffffffffff16915091509091565b60036020528060005260406000206000915090508060000160009054906101000a900460ff16908060000160019054906101000a900473ffffffffffffffffffffffffffffffffffffffff16905082565b60006106b3610741565b6106bb610741565b60008090505b600281101561070457600481600281106106d757fe5b60020201600101805490508282600281106106ee57fe5b60200201818152505080806001019150506106c1565b506000548192509250509091565b60006002905090565b600260009054906101000a900473ffffffffffffffffffffffffffffffffffffffff1681565b604051806040016040528060029060208202803883398082019150509050509056fe536f6c6f207365207065726d69746520656d6974697220756e20766f746f20706f7220706572736f6e612e2e2e212121a265627a7a72315820cd2edec5b528710bd745283ed653ef6d5dda91d2a5297ca3e3cbdf894e2a63ff64736f6c63430005100032",
  "source": "pragma solidity >=0.4.17 <0.7.0;\n\n\ncontract Voting {\n    struct Voter {\n        bool voted;\n        address voterAddr;\n    }\n\n    struct Proposal {\n        uint256 id;\n        address[] proposalVotes;\n    }\n\n    uint256 totalVotes = 0;\n    uint256 votingEndDate;\n    address public admin;\n\n    mapping(address => Voter) public voters;\n    Proposal[2] public options;\n\n    constructor() public {\n        admin = msg.sender;\n        // Tiempo que durará la votación.\n        votingEndDate = now + 3 minutes;\n\n        address[] memory emptyArray;\n\n        options[0] = Proposal({id: 0, proposalVotes: emptyArray});\n        options[1] = Proposal({id: 1, proposalVotes: emptyArray});\n    }\n\n    function getOptions() public view returns (uint256) {\n        return options.length;\n    }\n\n    function vote(uint256 _votedProposal) public votedBeforeEndDate() {\n        if (voters[msg.sender].voted) {\n            revert(\"Solo se permite emitir un voto por persona...!!!\");\n        }\n\n        voters[msg.sender].voted = true;\n        voters[msg.sender].voterAddr = msg.sender;\n\n        Proposal storage proposalId = options[_votedProposal];\n        proposalId.proposalVotes.push(voters[msg.sender].voterAddr);\n\n        totalVotes++;\n    }\n\n    function results() public view returns (uint256, uint256[2] memory) {\n        uint256[2] memory countedVotes;\n        for (uint256 item = 0; item < options.length; item++) {\n            countedVotes[item] = options[item].proposalVotes.length;\n        }\n        return (totalVotes, countedVotes);\n    }\n\n    modifier votedBeforeEndDate() {\n        require(now <= votingEndDate, \"El periodo de votación finalizo\");\n        _;\n    }\n\n    function getVoterDetails() public view returns (bool, address) {\n        return (voters[msg.sender].voted, voters[msg.sender].voterAddr);\n    }\n}\n",
  "sourcePath": "/Users/federico/Desktop/bbvaHack/VotingDapp/contracts/Voting.sol",
  "compiler": {
    "name": "solc",
    "version": "0.5.16+commit.9c3226ce.Emscripten.clang"
  },
  "schemaVersion": "3.0.23",
  "updatedAt": "2020-05-30T23:15:26.604Z",
  "networkType": "ethereum",
  "devdoc": {
    "methods": {}
  },
  "userdoc": {
    "methods": {}
  }
}